:020000040800F2
:100000002008002065020008212C0008B12A000801
:100010001D2C000871110008052F000800000000C9
:10002000000000000000000000000000292C000873
:10003000A511000800000000252C00082D2C000848
:100040007F0200087F0200087F0200087F0200088C
:100050007F0200087F0200087F0200087F0200087C
:100060007F0200087F0200087F0200087F0200086C
:100070007F0200087F0200087F0200087F0200085C
:100080007F0200087F0200087F0200089911000823
:1000900075110008811100088D1100087F02000809
:1000A0007F0200087F0200087F0200087F0200082C
:1000B0007F0200087F0200087F0200087F0200081C
:1000C0007F0200087F0200087F0200087F0200080C
:1000D0007F0200087F0200087F0200087F020008FC
:1000E0007F0200087F0200087F0200087F020008EC
:1000F0007F0200087F0200087F0200087F020008DC
:100100007F0200087F0200087F0200087F020008CB
:100110007F0200087F0200087F0200087F020008BB
:100120007F0200087F0200087F0200087F020008AB
:100130007F0200087F0200087F0200087F0200089B
:100140007F0200087F0200087F0200087F0200088B
:100150007F0200087F0200087F020008F92E0008D5
:100160007F0200087F0200087F0200087F0200086B
:100170007F0200087F0200087F02000800000000E4
:100180007F0200087F0200087F0200087F0200084B
:100190007F0200087F0200087F0200087F0200083B
:1001A00000000000000000007F02000800F002F8DC
:1001B00000F049F80AA090E8000C82448344AAF1B8
:1001C0000107DA4501D100F03EF8AFF2090EBAE8B6
:1001D0000F0013F0010F18BFFB1A43F0010318477B
:1001E0004C2E00006C2E0000103A24BF78C878C155
:1001F000FAD8520724BF30C830C144BF04680C602D
:10020000704700000023002400250026103A28BF74
:1002100078C1FBD8520728BF30C148BF0B60704778
:10022000782900F0EB80002070471FB502F0C2FE75
:100230009DE8030000F016FE00F02AFB1FBD10B57C
:1002400000F08FFB10BD00F0F2FB1146FFF7EDFF51
:1002500002F05AFE00F0ACFD03B4FFF7F0FF03BC60
:1002600000F0F2FE0948804709480047FEE7FEE734
:10027000FEE7FEE7FEE7FEE7FEE7FEE7FEE7FEE756
:1002800004480549054A064B70470000E92C000860
:10029000AD010008200200202008002020040020DA
:1002A0002004002053EA020C00F069802DE9F04B95
:1002B0004FF00006002B1FBFB3FA83F503FA05F4D5
:1002C00024FA05F65E4012BF1643B2FA82F502FA2E
:1002D00005F4C5F120051EBF22FA05FC44EA0C0412
:1002E000203556EA044C4FEA144418BF641C4FF002
:1002F00000084FF00009904271EB030C39D300293C
:1003000019BFB1FA81F701FA07F6B0FA80F700FADF
:1003100007F6C7F120071EBF20FA07FC46EA0C06C5
:100320002037B6FBF4FCA7EB0507103F07F01F0BC7
:10033000CBF120062CFA06F60CFA0BFB44BFB346B1
:100340000026202FA4BF5E464FF0000B5BEA060C90
:1003500008BF4FF0010B19EB0B0948EB0608ABFB8C
:10036000027C06FB02CC0BFB03CCC01B71EB0C0127
:10037000C1E70B46024641464846BDE8F08B13B53F
:10038000084318BF4FF0FF300146AFF30080BDE8CF
:100390001C4070470FB4044910B503AA029800F03E
:1003A00057F910BC5DF814FB6C00002070B50446D2
:1003B00085690068C10601D5302600E02026C00707
:1003C00007D070BDD4E9012130469047206A401C17
:1003D00020626D1EF6D570BD70B504468569007843
:1003E000C00707D170BDD4E9012120209047206AC1
:1003F000401C20626D1EF6D570BD000070B504462D
:100400000D4621461068AFF300802188090502D50A
:100410000F4A7A4402E00E4A7A440E32002104F177
:10042000240305E000F00F060009965D5E54491CA8
:100430000028F7D120780023000704D5702D02D0C2
:1004400009B1022311322046BDE8704000F0A7B880
:10045000B82B00002DE9F05F894604464FF0000AF2
:10046000DFF824B1FB44C0F820A02046E1688847AB
:1004700000287DD0252806D0D4E901219047206AA4
:10048000401C2062F1E700255F462046E16888476E
:100490002028064607DB312E05D2B81910F8200CAB
:1004A00008B10543F1E7A80701D525F00405C4F814
:1004B0001CA00027C4F818A02A2E09D0304602F04C
:1004C00064FD38B304EB8708303EC8F8186019E0C3
:1004D00059F8041B204604EB87029161E1688847C4
:1004E000012F064618D1E069002820DA25F0200502
:1004F0001DE0D8F8180000EB800006EB4000303813
:10050000C8F818002046E1688847064602F03DFD1D
:100510000028EED1012F0AD02E2E08D12046E16806
:1005200088477F1C0646022F45F02005C4DBA069E2
:10053000002803DA404245F00105A061E80701D038
:1005400025F01005A6B1A6F14100192802D82036E1
:1005500045F400654A463146204625604D46FFF782
:100560005FFE60B1012807D0ED1D25F0070000E017
:1005700007E000F1080978E705F1040975E730465E
:100580007AE7206ABDE8F09F8E2B0000014902F057
:1005900003BD00006C0000207047704770472DE9D4
:1005A000F0470D4699469246044600F1240801683A
:1005B000880604D5E06921F01001216000E00120E7
:1005C000A84201DD471B00E00027A1697A1902EB70
:1005D0000900081AA0612078C00602D42046FFF75F
:1005E000E5FE002608E0D4E901211AF8060090474C
:1005F000206A401C761C20624E45F4DB2078C00641
:100600000AD52046FFF7D2FE06E0D4E901213020CA
:100610009047206A401C2062381EA7F10107F4DCD5
:1006200007E0D4E9012118F805009047206A401C32
:100630002062281EA5F10105F3DC2046FFF7CCFE61
:100640002078000602D50220BDE8F0870120FBE7F4
:10065000074B70B50D467B4400F011F80446284660
:1006600000F020F810B14FF0FF3070BD204670BD93
:100670003F29000001694A1C02610878704700B5F3
:100680008FB0CDE901310021059105497944CDE9CB
:10069000031011466846FFF7DDFE0FB000BD0000F5
:1006A000E5FFFFFF007B00F0800070472DE9F05F61
:1006B000054617460C46C86820F4201040F4800018
:1006C000C860800602D5084600F0B3FAE06841F23F
:1006D00082014FF0FF3A0140022903D0204600F08A
:1006E00045FAB9E000F42041B1F5004F0FD1C00345
:1006F00006D56168E06A884200D80846606006E076
:100700002069E0626060606900F08BF9A061A06818
:100710000022EEB200280DDAE1688B050AD4C0434E
:10072000A06041F490302260E0606068411C61602C
:100730000670AAE0E0689146226040F40050E06054
:10074000206978BB606900F05EF904F124054FF080
:100750000108A8B1A08910F4407F08D0E06900F03A
:100760008BF9206118B1E06840F4006017E0C4F82C
:100770001C802561E06820F4407040F480600EE049
:10078000E06900F079F900282061F0D0E06840F4D9
:10079000006010F4407FE06002D140F48070E060BF
:1007A00020696060E06825696FF0010BC1051ED506
:1007B0006168E06A884200D80846411B04D022469E
:1007C000284600F0DDF9E8BB1FB1E562C4E9015934
:1007D00059E0681CE0626060E069401EA060E0686B
:1007E00040F48030E06030462E70BDE8F09F17B1D5
:1007F00000F480320AE06068411C61600670E068C5
:100800000A2E40F48030E06006D00022E16A606881
:10081000814203D90B4602E00122F7E70346B4F810
:100820000CC05B1B5FEA4C5C04D4D4F81CC09C4534
:1008300000DD02B3814200D80146002BA1EB000885
:10084000E56200E008E0C4E9015907DD22461946E7
:10085000284600F095F908B15046C6E7B8F1000FF8
:1008600009D0A169E5626560A1EB0800A061E068BC
:1008700040F01000E06047B16168A069E562491B83
:1008800008446560A0615846AFE73046ADE7000018
:1008900010B54248542100F09BFA4148542100F021
:1008A00097FA4048542100F093FA3F493B483C4AAC
:1008B0003F4B08603D490A603A491960531C036583
:1008C000481C1065012008653B48344A39A178442A
:1008D00000F0D0F920B9384878440A3800F071FAAD
:1008E00037482F4A35A1784400F0C4F920B934487C
:1008F00078440A3800F065FA32482A4A2FA1784431
:1009000000F0B8F920B92F4878440A3800F059FAB5
:1009100040232248DC000021224600F003F920B1E8
:1009200025487844543800F04CFA1D4822464023AC
:10093000002100F0F7F820B121487844543800F045
:1009400040FA184822461023002100F0EBF8002856
:1009500006D01C487844BDE81040563800F031BA43
:1009600010BD104870B5006D20F001040B4800F078
:10097000F9F90B4800F0F6F90A4800F0F3F909E03C
:10098000206D20F00105204600F0ECF9204600F033
:10099000A2F82C46002CF3D170BD000018000020F6
:1009A0006C000020C0000020000000200400002097
:1009B00008000020720000003527000077000000CA
:1009C000212700000D2700000EB5CDE9000100F041
:1009D0001BFB029069460120ABBE0EBD08B56946FF
:1009E00000900220ABBE08BD1FB58DE80700694628
:1009F0000520ABBE04B010BD1FB58DE80F006946E1
:100A00000620ABBEF6E708B5694600900920ABBEEC
:100A100008BD1CB5CDE9000169460A20ABBE1CBD6E
:100A2000704708B5694600900C20ABBE08BD7546FE
:100A300000F0F6F9AE4605006946534620F007007F
:100A4000854618B020B5FFF71BFCBDE820404FF0ED
:100A500000064FF000074FF000084FF0000BAC46C7
:100A6000ACE8C009ACE8C009ACE8C009ACE8C00912
:100A700021F007018D46704770B5064600F0D6F9A3
:100A8000056806F10B0020F00704B4429CBF00206B
:100A900070BD2B466A68BAB11068A04210D304F149
:100AA000080188423CBF5068586007D3516810194C
:100AB00041601168091B016058601460101D70BD11
:100AC00013465268002AE7D12146284600F0B6F9BD
:100AD0000028DED170BD70B50446051F00F0A6F9F0
:100AE0000068002C14BF446870BD002C18BFAC42D5
:100AF0003CBF20466468F8D301680A18AA4218BFB0
:100B0000456003D12A6805461144016028684119EF
:100B1000A1421CBF6C6070BD6168696021680844B7
:100B2000286070BD70B5C468A50713D0650211D4E4
:100B3000B2F5807F09D0B2F5007F06D0B2F5806FA4
:100B400008D1012300F1240106E05D1E6FF07F460D
:100B5000B54201D3012070BD0161C361416024F43D
:100B600070611143C160002070BD0000C16821F4B4
:100B7000001141F08001C160002181600160704777
:100B80002DE9F74F15460C464FF0FF3B3848D76824
:100B9000D2F814A0074209D05046A969FFF739FFDF
:100BA000002819DB3248C0430740EF604FF000498E
:100BB0006FF000484C4501D3464600E026460099B8
:100BC0003B4650463246FFF70FFFA96920F000422E
:100BD000B21A1144A96128B12846FFF7C7FF584649
:100BE000BDE8FE8FA41BE5D10020F9E770B50446EF
:100BF0000569C06A6168884200D80846E16821F446
:100C00002011E160C90312D5A84208D02246411B39
:100C10002846FFF7B5FF10B14FF0FF3070BD002040
:100C2000E562C4E90150E06820F48030E060002013
:100C300070BD10B50446C06820F02000E060A16AD5
:100C4000A06988420DD02046FFF7D0FFE06820F46D
:100C5000405040F01000E060A06AA0612069E062AE
:100C6000606044F24001E0688843E06010BD00002D
:100C7000100002002DE9F0410C461646070047D04F
:100C8000104600F06FF82078611C61280AD07228A5
:100C900002D077283CD102E00125002405E002259E
:100CA000042402E0082448F2020511F8010B2B2865
:100CB00006D0622809D011F8010C74280AD00BE084
:100CC00045F0030544F00204EFE745F0040544F065
:100CD0000104EAE744F0100438462146FFF774FEA9
:100CE000411C15D00021316171604FF40071F56035
:100CF000F1617061200704D530460222002100F026
:100D0000E7F8306D40F0010030653046BDE8F08115
:100D10000020FBE72DE9F0410D460646104C206D02
:100D2000C10704D0410804D020F00104F7E72246AF
:100D30000EE05420FFF7A0FE07000ED0206D47F014
:100D40000101084354212065384600F041F83A4635
:100D500029463046BDE8F0418CE70020D6E7000088
:100D6000180000202DE9F04704464FF0FF38002618
:100D7000C568D4E90497A80718D02046FFF736FFC6
:100D80003846FFF72BFE002800DA4646280502D534
:100D90004846FFF7A0FE4C21204600F019F8206DD0
:100DA00020F0010020653046BDE8F0874046FBE7B3
:100DB00010B50446AFF300802046BDE81040FFF7B1
:100DC0004BBA10B500F006F9BDE8104000F0FCB8D1
:100DD0004FF0000200B5134694469646203922BFD4
:100DE000A0E80C50A0E80C50B1F12001BFF4F7AF1F
:100DF000090728BFA0E80C5048BF0CC05DF804EB01
:100E0000890028BF40F8042B08BF704748BF20F86E
:100E1000022B11F0804F18BF00F8012B7047000023
:100E200000487047140100207047000000487047D8
:100E30001C010020704770477047704738B5044662
:100E40000A4600206946AFF30080002808BF38BD7D
:100E500002460099204600F0FDF8012038BD01202F
:100E600000F04CB9F8B5AFF30080054600200C4601
:100E7000102000BF0646A819A0420DD93246694687
:100E80000020AFF30080070008BF00F037F900989A
:100E9000A04218BF0546C419FFF7C8FF0560074602
:100EA000F01D20F007004619284600F00AF8B44269
:100EB00008BFF8BDA21B31463868BDE8F84000F015
:100EC000C9B800210160C0E90110704710207047C7
:100ED0002DE9F041044616460D464769007B800720
:100EE0002ED03846FFF78FFD50BB3EB3012E02D007
:100EF000022E25D104E0204600F0C6F805441DE08E
:100F00003846FFF78EFDE168002841F01001E160EE
:100F100005DA2046FFF72AFE0120BDE8F081C9036B
:100F20000BD56268E16A914200D81146A26911446A
:100F30002269891A814200DD08460544002D01DA44
:100F40000220EAE7E16A6068E268814206D2910322
:100F5000E06203D522F4003141F01002A6690027B7
:100F6000AE4213DCE16A814201D90B4600E0034640
:100F700003EB060C2369ACEB030CAC4506DD8142A8
:100F800001D98C4600E084469C4505D1A7602760C6
:100F900042F02000A5620DE0AD1BE669AE1B814268
:100FA000A66000D90846C01A281A20605819606047
:100FB00022F0200003490840E060002084F84870D7
:100FC000ABE70000BFCFD7FF002801D000F03CB84E
:100FD0007047000010B5014602A000F076F801202D
:100FE00010BD000053494752545245443A205265BF
:100FF0006469726563743A2063616E2774206F7050
:10100000656E3A200000000010B5431C02E010F8A5
:10101000011B71B18107FAD14FF0013202C88C1A5D
:101020008C4314EAC211F9D0C01A0A0603D0C01EBC
:1010300010BDC01A10BD0A0401D0801E10BD0902E7
:10104000FCD0401E10BD000001491820ABBEFEE7D9
:1010500026000200034640688C46002818BF8842DC
:101060003CBF03464068F8D318681844884207D04C
:101070000CF1030020F00700001D411A521A01462E
:10108000081D0A60FFF727BD10B50146C26890072A
:1010900003D0900607D5886A0AE000F03DF80121E8
:1010A0000160881E10BD8B69486818440B69C01A1E
:1010B00091F848301BB191F84910401A10BD110346
:1010C000FCD50028FADD401E10BD70B505460C4663
:1010D0000A2000E06D1C00F018F835B128780028CF
:1010E000F8D102E0641C00F010F814B12078002858
:1010F000F8D1BDE870400A2000F007B810B500F044
:101100000FF8BDE81040FFF75FBF08B569468DF8DE
:1011100000000320ABBE08BD00487047140100204A
:1011200010B5012805D0002103A0FFF7CEFF012054
:1011300010BD09A1F8E7000053494752544D454DF1
:101140003A204F7574206F662068656170206D6568
:101150006D6F7279000000003A2048656170206D63
:10116000656D6F727920636F72727570746564005B
:10117000FEE7000040F2A810C2F2000000F090B9B3
:1011800040F2A810C2F2000000F08AB940F2A810A4
:10119000C2F2000000F084B940F2A810C2F20000D0
:1011A00000F07EB97047000072B600BFFEE7000095
:1011B00090F82020013A012A08D8006800F11402B2
:1011C0000020136819431160704700BF00F124022A
:1011D00001204FF48021136819431160704700000B
:1011E00010B590F820E0D0F800C0AEF1010EBEF1CD
:1011F000010FDCF808E011D81EF0E05F18D0CEF344
:10120000016E012000FA0EF018608B68D3B14868B7
:10121000CC6844EAC000034318E000BF00F1240199
:1012200001204FF480220B681A430A6010BD00BFF2
:1012300000F1240101204FF400120B681A430A60E8
:1012400010BD00BF0868CB6843EA40530CEB0E109A
:10125000C0F880310B69C0F88431097D012905D1BE
:1012600000F5C2710B6843F480730B605168C0F8DD
:101270008C11126800F5C071C0F88821002001228D
:101280000B681A430A6010BDB0B590F82020013AEF
:10129000012A2FD846F20060C4F20000026842F032
:1012A00001020260026822F47C520260D1F814E06C
:1012B000CC694A6A0368012C43EA022202600EF0FC
:1012C0001F024FF0010303FA02F2C3696FEA020C36
:1012D00023EA0203C36113D02CBBC36803EA0C03E7
:1012E000C360CB688C8844EA034300EBCE042364DC
:1012F0000B4611E0416A41F4802141620120B0BDFA
:10130000C3681343C3600B688C8844EA034300EB53
:10131000CE04236401F10C038C681B8843EA044368
:1013200000EBCE04636443688D6943EA0204D1F89C
:1013300010E0096A002D08BF03EA0C044460436909
:10134000BEF1000F43EA020408BF03EA0C040129BE
:10135000446102D1C1691143C161016821F00101F9
:1013600001600020B0BD00007047000010B590F88B
:101370002040013C012C7BD8D0F800C0002900F0AF
:101380008180DCF81040A40700F081800CEB011C88
:10139000DCF8B0410CF5D87E14F004049460DCF85D
:1013A000B04119BFE4085460640D1460DEF80040D9
:1013B0000CF5DA7E04F00204D460DCF8B4412407B2
:1013C0005ABFDEF8004004F00F0408241461DEF870
:1013D00000400029C4F307249461DEF800404FEA7E
:1013E00014445461DCF8B8211A70026802EB01124F
:1013F000D2F8B8214FEA12225A70026802EB0112A9
:10140000D2F8B8214FEA12429A70026802EB011238
:10141000D2F8B8214FEA1262DA70026802EB0112C8
:10142000D2F8BC211A71026802EB0112D2F8BC2179
:101430004FEA12225A71026802EB0112D2F8BC2163
:101440004FEA12429A71026802EB0112D2F8BC21F3
:101450004FEA1262DA71006814BF00F1100100F166
:101460000C01002020220B681A430A6010BD00BF47
:1014700000F1240101204FF480220B681A430A6016
:1014800010BD00BFDCF80C40A4077FF47FAF00F173
:10149000240101204FF400120B681A430A6010BDAA
:1014A0002DE9F04F81B0044600684669D0F80490F9
:1014B0008768D0F80CB0D0F810A0D0F81880F107E9
:1014C00004D1002530071DD424E000BFF90710D057
:1014D0000121BA07816009D4780700F1AF8038078D
:1014E00000F1B680204600F089FA02E0204600F0C4
:1014F00087FA0025F80500F18780F80300F1B18034
:10150000300707D51BF0100004D0206845F40075A3
:101510001021C160700708D51BF0080005D02068B5
:101520000821C160204600F0B9F9B00706D520684F
:10153000C068800702D0204600F0B2F9700607D5D7
:101540001AF0100004D0206845F480651021016174
:10155000B00608D51AF0080005D0206808210161FE
:10156000204600F017FAF00606D5206800698007CB
:1015700002D0204600F010FAB00308D519F0100090
:1015800005D0206810214160204600F007FAF003E2
:1015900008D519F0080005D02068082141602046D0
:1015A00000F038FA300440F19B805FEA497040F166
:1015B000948006F4807008EA102028435FEA88715E
:1015C000014648BF41F00201B20558BF01465FEA3B
:1015D00048700D4648BF45F00405700558BF0D46DC
:1015E000300540F17A8018F0700000F076801038F5
:1015F000000905286CD8DFE800F003595D616569D2
:1016000045F0080564E000BF20684FF48071BA051A
:1016100081600BD4780515D438051DD4204600F020
:10162000F1F9F8037FF56CAF1BE000BF204600F036
:10163000EBF9F8037FF564AF13E000BF4FF40065EA
:1016400058E700BF05F50055F8037FF559AF08E0EE
:101650004FF480554EE700BF05F58045F8037FF550
:101660004FAF20684FF48031BA0381600AD4780309
:1016700010D4380314D4204600F0C8F930073FF5E1
:1016800041AF47E7204600F0C3F930073FF53AAFD6
:1016900040E700BF05F5004530073FF533AF39E7B8
:1016A00005F5803530073FF52DAF33E745F01005E0
:1016B0000EE000BF45F020050AE000BF45F0400500
:1016C00006E000BF45F0800502E000BF45F48075EC
:1016D0002068816921F070018161206804214160E6
:1016E00055B1606A40EA05012046616201B0BDE87B
:1016F000F04FFFF739BE00BF01B0BDE8F08F00002A
:10170000B0B5C8B1044690F8200010B9204600F0EA
:1017100071F82068016841F00101016000F0C4FA2D
:10172000054600BF20684168C90707D100F0BCFA30
:10173000401B0B28F6D312E00120B0BD016821F058
:101740000201016000F0B0FA054600BF2068416860
:1017500089070DD500F0A8FA401B0B28F6D3606A64
:10176000052140F400306062012084F82010B0BDF3
:10177000217E0268012922F0800208BF80320260C7
:10178000617E0268012922F0400208BF40320260F7
:10179000A17E0268012922F0200208BF20320260E7
:1017A000E17E0268012922F0100218BF10320260A7
:1017B000217F0268012922F0080208BF0832026076
:1017C000617F0268012922F0040208BF043202602E
:1017D000D4E901C2D4E9033561691A432A431143AC
:1017E000ACF101021143C16100200121606284F863
:1017F0002010B0BD80B586B0016846F20040C4F24A
:101800000000814202D006B080BD00BF002143F637
:1018100030020191C4F20202136900F5D43043F0A2
:1018200000731361136903F000730193019B01912D
:10183000136843F0080313601268022302F00802E1
:101840000192019ACDE9023109210322059101A9F2
:101850000192049200F04EF913200021002200F0C2
:10186000A7FA132000F090FA14200021002200F0C3
:101870009FFA142000F088FA15200021002200F0C1
:1018800097FA152000F080FA16200021002200F0BF
:101890008FFA162000F078FA06B080BD704700007D
:1018A00070B540F27415C2F2000505F1180205F199
:1018B00010030021FFF75AFD002818BF70BDA96969
:1018C00026A0FEF767FD2BA0FEF764FDA86A50B1C5
:1018D00000262AA4A819017C2046FEF75BFDA86A11
:1018E00001368642F6D30A20FEF750FE288A9FED85
:1018F000251A40BA00EE100A688AB8EEC00A20EE37
:10190000010A40BA85ED000A00EE100AA88A9FED90
:101910001E1AB8EEC00A00BA4FF4004120EE010AC8
:1019200001EB104085ED010A00EE100A9FED171A39
:10193000B8EEC00A20EE010ABBEE041AA87D30EE14
:10194000010A85ED020A00EE100A9FED111AB8EEA9
:10195000400A20EE010A85ED030A70BD52656365F9
:10196000697665642043414E2049443A2030782509
:10197000580A0000446174613A2000002530325852
:1019800020000000A005343DC800C83BA000203A5C
:10199000FBFAFA3E704700007047000070470000F5
:1019A000B0B5044690F8200001281DD1022084F82B
:1019B00020002068016821F00101016000F074F945
:1019C000054600BF20684068C00713D000F06CF9DE
:1019D000401B0B28F6D3606A40F40030606205209B
:1019E00084F820000120B0BD606A40F400206062ED
:1019F0000120B0BD00206062B0BD00007047000053
:101A000070470000704700007047000070470000FA
:101A1000704700007047000070B5866D044600F006
:101A200043F994F83510022928D105462068216C25
:101A3000026822F016020260426922F080024261CE
:101A400009B9A16C19B1016821F0080101600168B0
:101A500021F00101016000BF20680068C00715D0B7
:101A600000F022F9401B0628F6D3202060650320F1
:101A700084F83500002184F8341070BD8020606542
:101A80000120002184F8341070BD00BFE06D3F21BB
:101A900001FA00F0B060012084F835000020002138
:101AA00084F8341070BD000090F83510022909D177
:101AB000052180F835100068016821F001010160FE
:101AC000002070478021416501207047B0B5044671
:101AD00000F0EAF8054640F20C00C2F2000000787F
:101AE000611C18BF044400BF00F0DEF8401BA04298
:101AF000FAD3B0BD2DE9F04F82B000F13E4242F280
:101B0000004502F1FF77C4F202050A2243F6004EB7
:101B10004FEAB726A84208BF0922C4F2010E092ED7
:101B200038BF4FEAB7220125002600274FF00008F2
:101B3000009208E008F101080437B8F1100F06F12F
:101B4000020600F0A7800C6805FA08F914EA090FEC
:101B5000F0D0D1F804B003220BF0030CACF1010477
:101B6000B240012C6FEA020A10D88268CC6802EAFF
:101B70000A02B440224382604268CBF3001422EA96
:101B8000090204FA08F42243426005E0BCF1030FA5
:101B900002D14FF0030C20E0C2688C6802EA0A020E
:101BA000B4402243BCF1020FC26016D16FF00302B1
:101BB00002EA58020244D2F820C007F01C050F23A5
:101BC0000C69AB402CEA030304FA05F52B431362BE
:101BD000D1F804B001250BF0030C02680CFA06F3EF
:101BE00002EA0A021A431BF4403F0260A2D000221C
:101BF00043F644030192C4F202031A684FF6084CFC
:101C000042F480421A601A68CFF6FF7C02F48042E8
:101C10000192019A28F00302724452F80C3007F046
:101C20000C050F24AC40A343009C04FA05F52B439C
:101C300042F80C30DEF808204B6842EA090543F60A
:101C40000C4CDC0258BF22EA0905CEF80850C4F259
:101C5000010CDCF800209C0242EA090558BF22EA88
:101C60000905CCF80050DEF804209C0342EA09057F
:101C700058BF22EA0905CEF80450DEF80020DB0345
:101C800042EA090558BF22EA0905CEF800500125AD
:101C900050E700BF02B0BDE8F08F0000002A08BF87
:101CA000090481617047000040F21820C2F2000070
:101CB0000068704740F20C0040F21821C2F20000A8
:101CC000C2F2000100780A68104408607047000002
:101CD00080B543F60040C4F20200016841F400718F
:101CE0000160016841F480610160016841F4807124
:101CF0000160032000F088F80F2000F005F800F0E4
:101D000027F8002080BD000070B540F20C06C2F23A
:101D1000000640F214013278C2F200014FF47A73E7
:101D20000968B3FBF2F20446B1FBF2F1084600F099
:101D300081FB0F2C4FF0010508D838B94FF0FF3068
:101D400021460022002500F033F87460284670BD5B
:101D500082B0002043F640010190C4F202014A68BB
:101D600042F480424A604A6802F480420192019A39
:101D70000090086840F080500860086800F08050CB
:101D80000090009802B07047002848BF7047C1B269
:101D900000F01F00012202FA00F04EF20012CEF213
:101DA000000242EAD10121F00301086070470000FF
:101DB00010B54EF60C5CCEF2000CDCF80030C3F32C
:101DC000022E8EF00704042C28BF0424BEF1030366
:101DD0004FF0FF3E0EFA04F438BF0023A1439940B0
:101DE0000EFA03F39A43114300F00F0200F160432F
:101DF0000901043A03F564436244002848BF02F134
:101E00000C03197010BD00004EF60C51CEF200010B
:101E10000A684FF6FF031A4060F30A2242F080601E
:101E200040F0FD700860704770B582B000200190EE
:101E300043F64000C4F202000168402641F08051A0
:101E400001600068C4F20E2600F0805001900198F5
:101E500047F204050120C4F200053060FFF724FFBB
:101E6000044600BF2868C00306D4FFF71DFF001B0F
:101E7000B0F57A7FF6D90EE001207060FFF714FF0D
:101E8000044600BF2868800308D4FFF70DFF001B3D
:101E9000B0F57A7FF6D9032002B070BD002002B001
:101EA00070BD00002DE9F041002800F08B8043F662
:101EB0000808C4F202080446D8F8F8030D4600F0FA
:101EC0000F00884207D288F8F853D8F8F80300F0DA
:101ED0000F00A84276D12068810717D5410705D5A4
:101EE000D8F8001041F4E051C8F80010010705D5FA
:101EF000D8F8001041F46041C8F80010D8F800107C
:101F0000A26821F0F0011143C8F80010C0073FD1CA
:101F1000D8F8F80300F00F00A84207D988F8F85362
:101F2000D8F8F80300F00F00A8424BD12068410711
:101F300007D5D8F80010E26821F4E0511143C8F841
:101F40000010000708D5D8F80000216920F460408F
:101F500040EAC100C8F8000000F07CF8D8F8001092
:101F600043F21302C1F30311C0F60002515C40F2C8
:101F7000140220FA01F140F21000C2F200000068E1
:101F8000C2F200021160FFF7BFFE0020BDE8F08141
:101F90006068811E022907D258F8081C89015CBFBD
:101FA0000120BDE8F08111E0012807D158F8081C94
:101FB00089035CBF0120BDE8F08107E058F8081CE8
:101FC000890703D40120BDE8F08100BFD8F80010D4
:101FD00021F003010843C8F80000FFF765FE06463C
:101FE00041F28837D8F80000616800F00C00B0EBCF
:101FF000810F8DD0FFF758FE801BB842F2D9032025
:10200000BDE8F08140F2140043F60801C2F200007E
:10201000C4F202010068096843F22302C1F382217D
:10202000C0F60002515CC8407047000040F2140046
:1020300043F60801C2F20000C4F202010068096818
:1020400043F22302C1F34231C0F60002515CC840A2
:102050007047000010B543F60404C4F2020460683F
:1020600000F00C0008280BD0042819BF42F20040F1
:10207000C0F2F40041F60030C0F2B70010BD00BF5E
:10208000206821682368490241F60031C0F2B70197
:1020900000F03F02C3F388105CBF42F20041C0F27F
:1020A000F401A1FB00010023FEF7FCF821680222E5
:1020B000C1F3014102EB4101B0FBF1F010BD0000A2
:1020C0002DE9F04182B0002868D00446007843F63C
:1020D0000006C007C4F202060BD0B06800F00C0086
:1020E000042840F09F803068800302D56068002893
:1020F00054D0207880071AD5B06810F00C0F09D0A2
:10210000B06800F00C00082840F0A680706840021B
:1021100000F1A2803068800702D5E06801283DD137
:102120003068216920F0F80040EAC1003060207872
:10213000000737D4207840074CD4A56955B3B06860
:1021400000F00C00082840F0BB80012D26D07068FC
:10215000E16900F480028A4220D1216A00F03F0246
:102160008A421BD147F6C071626A0140B1EB821FFF
:1021700014D1A16A4FF6FF73C903994300F44032AA
:10218000A1F580318A4209D1E16A00F07060B0EBBC
:10219000016F03D1002002B0BDE8F081012002B040
:1021A000BDE8F0816069002840F20000C4F24720D9
:1021B00076D00121C0F8801EFFF776FD054600BFEE
:1021C000706F8007B6D4FFF76FFD401B0228F7D968
:1021D000DDE000BF306C10F080580AD10020019083
:1021E000306C40F080503064306C00F080500190D2
:1021F000019847F20007C4F200073868C00541D4CF
:10220000386840F480703860FFF74EFD054600BF27
:102210003868C00536D4FFF747FD401B0228F7D9C0
:10222000B5E000BFB06800F00C00082803D170686A
:1022300040023FF558AF6068B0F5803F07D0B0F579
:10224000A02F40F08D80306840F4802030603068EE
:1022500040F4803030608DE0E068002852D00020EB
:10226000C4F2472001210160FFF71EFD054600BFB3
:10227000306880073FF554AFFFF716FD401B02287A
:10228000F6D984E0A068012805D005284ED1306F2A
:1022900040F004003067306F40F0010030674FE0DD
:1022A0000021C0F8801EFFF7FFFC0546706F800715
:1022B0007FF540AFFFF7F8FC401B0228F6D966E037
:1022C0000027C4F2472700203866FFF7EDFC022DF7
:1022D00005460BD1306880015ED5FFF7E5FC401B59
:1022E00002284FF00300F5D955E700BF30688001A0
:1022F0007FF550AFFFF7D8FC401B02284FF00300DA
:10230000F4D948E70020C4F2472000210160FFF71C
:10231000CBFC0546306880077FF509AFFFF7C4FCAA
:10232000401B02284FF00300F4D934E7316F002836
:1023300021F001013167316F21F0040131674DD087
:10234000FFF7B2FC054641F2883700BF306F8007C7
:1023500056D4FFF7A9FC401BB842F7D917E000BFDD
:102360003168002821F480313160316821F4802106
:1023700031604FD0FFF798FC054600BF30688003FE
:102380003FF5B7AEFFF790FC401B6428F6D9032059
:1023900002B0BDE8F08100BF04F11C052FCD084359
:1023A00040EA8210D9034FF6FF729143A1F58031C4
:1023B00040EA05600843706001203866FFF774FC4E
:1023C000044600BF306880013FF5E4AEFFF76CFCC7
:1023D000001B02284FF00300F4D9DCE6FFF764FC91
:1023E000054641F2883700BF306F800708D5FFF7F8
:1023F0005BFC401BB8424FF00300F5D9CBE600BFB1
:10240000B8F1000F7FF499AE306C20F0805030644A
:1024100093E600BFFFF748FC054600BF3068800325
:102420007FF567AEFFF740FC401B64284FF00300C8
:10243000F4D9B0E6411E0020B0EB116F1CBF0120A3
:1024400070474EF21002CEF2000251604EF6235158
:10245000CEF20001F0230B700721906011607047ED
:102460007047000070470000B0B582B004460068B5
:102470000168C368426901F02F05202D03F0200593
:1024800006D12DB1204602B0BDE8B04000F03CBC02
:102490005FEA017C1EBF02F0010E03F4907212EBA2
:1024A0000E0253D1226B012A05D111F0100218BF80
:1024B00013F0100236D10A0622D513F080021FD085
:1024C00094F8411021293FD1A168B1F5805F03D173
:1024D0002169002900F07282216A4A1C226209786F
:1024E0004160E18C01390A04E1842DD1C16821F0F9
:1024F0008001C160C16841F04001C16002B0B0BD5F
:10250000490621D513F040011ED0C16821F04001D9
:10251000C1602021204684F8411002B0BDE8B040DF
:1025200000F0C4BA00210191016801914168019154
:1025300001994069400613D4A08DE18DE28D002AF7
:1025400018BF884240F0BC8102B0B0BDCA0718BFB6
:1025500013F4807240F0B8804A0700F1BB80C0E0FD
:10256000E06B016849688AB2002AEDD0A38D9A42D7
:10257000EAD2E185C069B0F5807F00F09C802068D8
:1025800050E8030F216820F4807041E80302DAB1BB
:10259000206850E8030F216820F4807041E80302AE
:1025A00092B1206850E8030F216820F4807041E860
:1025B00003024AB1206850E8030F216820F48070BC
:1025C00041E80302002ADAD1206850E8050F2168AB
:1025D00020F0010041E80502DAB1206850E8050F5B
:1025E000216820F0010041E8050292B1206850E81E
:1025F000050F216820F0010041E805024AB120687A
:1026000050E8050F216820F0010041E80502002A8A
:10261000DAD1206850E8050F216820F0400041E839
:102620000502DAB1206850E8050F216820F040006B
:1026300041E8050292B1206850E8050F216820F0BA
:10264000400041E805024AB1206850E8050F2168C2
:1026500020F0400041E80502002ADAD1202084F869
:10266000420000202063206850E8030F216820F01A
:10267000100041E80302DAB1206850E8030F216836
:1026800020F0100041E8030292B1206850E8030FE7
:10269000216820F0100041E803024AB1206850E8A8
:1026A000030F216820F0100041E80302002ADAD16C
:1026B000E06BFFF7B1F902206063A08DE18D401A55
:1026C00081B2204675E100BF626C42F00102626493
:1026D0004A0706D5BEF1000F03D0626C42F0020239
:1026E00062648A0706D5BEF1000F03D0626C42F027
:1026F00004026264BCF1000F09D545EA0E02B2FA89
:1027000082F2520903D1626C42F008026264626C88
:10271000002A3FF419AF11F0200118BF002D03D09B
:10272000204600F0F1FA20684069616C00F040003A
:1027300001F00801401800F0B58000BF206850E8A3
:10274000030F216820F4907041E80302BAB32068B7
:1027500050E8030F216820F4907041E8030272B33F
:10276000206850E8030F216820F4907041E80302CC
:102770002AB3206850E8030F216820F4907041E8E4
:102780000302002ADAD11AE0206850E8050F216818
:1027900020F0010041E80502DAB1206850E8050F99
:1027A000216820F0010041E8050292B1206850E85C
:1027B000050F216820F0010041E805024AB12068B8
:1027C00050E8050F216820F0010041E80502002AC9
:1027D000DAD1206B012824D1206850E8030F21684A
:1027E00020F0100041E80302DAB1206850E8030F3E
:1027F000216820F0100041E8030292B1206850E8FF
:10280000030F216820F0100041E803024AB120685C
:1028100050E8030F216820F0100041E80302002A6D
:10282000DAD1202084F8420000202063206840692B
:1028300040063FD5206850E8050F216820F0400091
:1028400041E80502DAB1206850E8050F216820F060
:10285000400041E8050292B1206850E8050F216868
:1028600020F0400041E805024AB1206850E8050F19
:10287000216820F0400041E80502002ADAD1E06B2F
:10288000C0B142F6FD41C0F600010165FFF70CF949
:1028900000283FF459AEE06B016D02B0BDE8B040D6
:1028A000084700BF2046FFF7DDFD0020606402B04E
:1028B000B0BD00BF204602B0BDE8B040FFF7D2BDBA
:1028C000401A216851E8031F226821F4907142E800
:1028D0000313DBB1216851E8031F226821F49071D2
:1028E00042E8031393B1216851E8031F226821F4E1
:1028F000907142E803134BB1216851E8031F22682D
:1029000021F4907142E80313002BDAD1216851E8D9
:10291000051F226821F0010142E80513DBB121689F
:1029200051E8051F226821F0010142E8051393B127
:10293000216851E8051F226821F0010142E80513D2
:102940004BB1216851E8051F226821F0010142E8DE
:102950000513002BDAD1202184F8421000212163D5
:10296000216851E8031F226821F0100142E8031397
:10297000DBB1216851E8031F226821F0100142E811
:10298000031393B1216851E8031F226821F010015D
:1029900042E803134BB1216851E8031F226821F07C
:1029A000100142E80313002BDAD1022281B2204643
:1029B000626302B0BDE8B040FFF752BD216A31F852
:1029C000022B6FF35F22426021628AE5002804BF78
:1029D0000120704710B5044690F8410028B9002046
:1029E00084F84000204600F021F8242084F84100BB
:1029F0002068C16821F40051C160204600F004FA4B
:102A00002068016921F490410161416921F02A01A6
:102A10004161C16841F40051C1600020202160641F
:102A200084F8411084F84210606310BD80B586B010
:102A3000016841F20040C4F20100814202D006B0B8
:102A400080BD00BF002143F630020191C4F20202B2
:102A5000536900F5823043F020035361536903F05A
:102A600020030193019B0191136843F0400313601D
:102A7000126802F040020192019A4FF484420192DE
:102A80000222CDE90221032104910821059101A927
:102A9000FFF730F8472000210022FFF789F947208F
:102AA000FFF772F906B080BD704700007047000064
:102AB000FEE7000080B540F2A81046F20041C2F2E5
:102AC0000000C4F200010322002380E80E0000F1A0
:102AD0000C014FF4302C4FF4801E81E808504FF465
:102AE00080710183C0F81A30FEF70AFE002808BF83
:102AF00080BDBDE88040FEF757BB00002DE9F043E4
:102B000087B0002743F6300006970197C4F2020011
:102B1000016841F2000441F0400101600168C4F223
:102B2000020401F04001019101990197016800221E
:102B300041F00101016001684FF4006601F00101FC
:102B4000019101990197016841F008010160016854
:102B500001F00801019101990197016841F080019C
:102B60000160016801F080010191019901970168FC
:102B700041F010010160016801F01001019101991B
:102B80000197016841F02001016000684FF4006185
:102B900000F02000019001982046FFF77FF804F52F
:102BA000806528464FF4804100224FF48048FFF7AB
:102BB00075F8029602AE4FF0110920463146CDE974
:102BC00003970597FEF796FF28463146CDE902891F
:102BD000CDE90477FEF78EFF07B0BDE8F083000073
:102BE00080B540F2D01041F20041C2F20000C4F2C0
:102BF000010100234FF00C0C4FF4E13280E80E008D
:102C0000C0E90333C0E905C3C361FFF7DFFE002855
:102C100008BF80BDBDE88040FEF7C6BAFEE70000F1
:102C2000FEE700007047000070470000FFF742B861
:102C300080B592B0002043F64001CDE90A00CDE90D
:102C400008000590CDE90300CDE901000090C4F231
:102C500002010A6842F080520A60096801F080515E
:102C600000910099009047F20000C4F20000016852
:102C700041F44041016000684FF4800100F440409D
:102C800000900098012006904FF480300D910621AD
:102C9000079002200E91B4210C90CDE90F10042072
:102CA000119006A8FFF70CFA10B172B6FEE700BF4C
:102CB000FFF7BAF810B172B6FEE700BF0F2001901F
:102CC00002200290002003904FF4A05004904FF493
:102CD0008050059001A80521FFF7E4F810B172B605
:102CE000FEE700BF12B080BD4EF68850CEF2000065
:102CF000016841F47001016070470000806B0021A1
:102D0000C185C184FFF7AEBB81B090F84210222983
:102D100021D183680246B3F5805F09D152F8281F9C
:102D200052F8183C002B63D003685B680AE000BFD0
:102D300052F8281F13B90369002BF5D003685B68AC
:102D400003F07F030B70116801311160C18D0139EF
:102D50000A04C18502D001B0704700BF0168CA688B
:102D600022F02002CA60CA6822F48072CA604A69EE
:102D700022F001024A61202180F8421000214163C3
:102D8000026B012A3CD10163016851E8031F02680C
:102D900021F0100142E80313DBB1016851E8031F81
:102DA000026821F0100142E8031393B1016851E871
:102DB000031F026821F0100142E803134BB10168C0
:102DC00051E8031F026821F0100142E80313002BB1
:102DD000DAD101680A68D20606D5002200920A6894
:102DE0000092496800910099818D01B0FFF738BBCE
:102DF000026852686FF35F2221F8022B8162A5E717
:102E000001B0FFF751BE000010B504460068D4E9D8
:102E100002C22369016921F44051114301616269D1
:102E200043EA0C01E3691143C268194349F20C6398
:102E30009A431143C1604169A26921F4407141F292
:102E40000043114340F48062C4F201039A4241619D
:102E500002D1FFF7EBF801E0FFF7D4F8E16963680E
:102E60001922B1F5004FA0FB020123D15A00DB0F5C
:102E7000FDF718FA48F21F51C5F2EB11A0FB012330
:102E80005A094FF69C73C0F6FF7303F1805302FB9F
:102E90000300322303EBC000A0FB01014FF4F870E4
:102EA00000EA111000EB0210C1F34211084421683E
:102EB000886010BD9A009B0FFDF7F4F948F21F518E
:102EC000C5F2EB11A0FB01235A094FF69C73C0F623
:102ED000FF7302FB0300322303EB0010A0FB010190
:102EE000F02000EA511000EB0210C1F34311084436
:102EF0002168886010BD000040F2D010C2F20000CE
:102F0000FFF7B2BAFEE7000094B0FEF7E1FEFFF76C
:102F10008FFEFFF7F3FDFFF7CDFDFFF761FE40F2F7
:102F2000A81801200024C2F200080990CDE907404A
:102F300001A94046CDE90144CDE90344CDE905446A
:102F4000FEF7A2F94046FEF72BFD40460221FEF7B0
:102F50002FF94FF0E0494FF4007A4FF0080B0EAD17
:102F60000CAE0BAF4046294632463B46CDE90C94A9
:102F7000CDE90EA4CDE91044CDF848B0FEF730F904
:102F80004FF47A70FEF7A2FDECE730380A2801D240
:102F900001207047002070478A68002A02DC002266
:102FA000FDF784BB521E8A604A68C0B2531C4B6056
:102FB00010707047F1EE100A4FF6FF71C0F2C03189
:102FC00020EA010040F04070E1EE100A7047303115
:102FD0003233343536373839414243444546403040
:102FE00058003031323334353637383961626364F2
:102FF0006566403078000400000800000000000012
:10300000000200010000103A7474003A7474003A2F
:1030100074740000000000000000000102030406B8
:1030200007080900000000010203040050300008F6
:103030000000002018000000E801000868300008C7
:10304000180000200808000004020008000000002A
:10305000000000000000000000000000010000006F
:08306000100000000024F40040
:04000005080001AD41
:00000001FF
